S0160000616E74697573656C657373626F782E7372656315
S11300000C941A010C9437010C9437010C943701A9
S11300100C9437010C9437010C9437010C9437017C
S11300200C9437010C9437010C9437010C9437016C
S11300300C9437010C9437010C9437010C9437015C
S11300400C9437010C9437010C9437010C9437014C
S11300500C943701000000000000005F000000075E
S1130060000700147F147F14242A7F2A1223130804
S1130070646236495522500005030000001C2241E9
S1130080000041221C00082A1C2A0808083E08080F
S11300900050300000080808080800303000002034
S11300A0100804023E5149453E00427F400042612F
S11300B05149462141454B311814127F10274545BB
S11300C045393C4A494930017109050336494949D2
S11300D036064949291E003636000000563600000F
S11300E000081422411414141414412214080002A8
S11300F001510906324979413E7E1111117E7F4931
S11301004949363E414141227F4141221C7F4949B0
S113011049417F090901013E414151327F080808E4
S11301207F00417F41002040413F017F081422416C
S11301307F404040407F0204027F7F0408107F3EDE
S11301404141413E7F090909063E4151215E7F0933
S1130150192946464949493101017F01013F40407F
S1130160403F1F2040201F7F2018207F6314081465
S1130170630304780403615149454300007F41410E
S1130180020408102041417F0000040201020440DF
S113019040404040000102040020545454787F48F9
S11301A04444383844444420384444487F38545400
S11301B05418087E090102081454543C7F080404AE
S11301C07800447D40002040443D00007F102844D6
S11301D000417F40007C041804787C0804047838CB
S11301E0444444387C14141408081414187C7C08FF
S11301F00404084854545420043F4440203C4040E4
S1130200207C1C2040201C3C4030403C44281028CA
S1130210440C5050503C4464544C44000836410053
S113022000007F0000004136080008082A1C080866
S11302301C2A080811241FBECFE5D8E0DEBFCDBFBD
S113024010E0A0E6B0E0E8E3FFE002C005900D9204
S1130250AE3CB107D9F720E0AEECB0E001C01D928E
S1130260A63DB207E1F70E9498020C949A070C94F9
S11302700000882319F0813019F00895C698089574
S1130280C5980895882319F0813019F00895C69A05
S11302900895C59A0895CF93DF93C82F1ABA1BBA4D
S11302A0C19AC4980E943901C09A82E08A95F1F7F4
S11302B000C0D9B3C0988C2F0E9442018D2FDF91CA
S11302C0CF910895CF93DF93D82FC62F862F0E9406
S11302D04B0188232CF48C2F0E944B018823DCF3E0
S11302E08FEF8ABB98B39D7E98BB8C2F0E943901F7
S11302F0DBBBC09A82E08A95F1F700C0C0988C2FCE
S11303000E944201DF91CF910895CF93C82F80912D
S1130310CF0082958695869583700E944B01882331
S1130320B4F38FEF8ABBC198C49ACBBB8091CF0042
S113033082958695869583700E943901C09A82E0E1
S11303408A95F1F700C0C0988091CF008295869578
S1130350869583700E9442018091CF008F5F8093C5
S1130360CF00CF91089587B3836787BB88B3806636
S113037088BB08950E94B30160E08FE30E9462018C
S113038061E08FE30E94620162E08FE30E946201F8
S113039008951F93CF93DF93D82FC62F8093CF0058
S11303A06093CE0060E080E40E946201C86B60E06C
S11303B08C2F0E94620160E080EC0E94620161E087
S11303C080E40E94620161E08C2F0E94620161E07E
S11303D080EC0E9462011D2F1295169516951370DC
S11303E08D2F8F73612F80640E946201612F8C2F87
S11303F00E946201DF91CF911F910895CF93DF9303
S1130400D0E06D2F80E00E94C901C0E080E00E942E
S11304108501CF5FC038D1F7DF5FD83091F7DF9126
S1130420CF9108950F931F93CF93DF93805290E061
S1130430EC01CC0FDD1FCC0FDD1F8C0F9D1FEC01D9
S1130440CC5ADF4F8E010B5F1F4FFE0184910E9437
S113045085012196C017D107C1F780E00E9485016C
S1130460DF91CF911F910F910895CF93DF93EC010A
S11304708881882331F021960E941202899181118A
S1130480FBCFDF91CF91089510BC83E389B988E055
S11304908AB986E880BD559A08958FB582608FBD6C
S11304A08EB58A618EBD8FB5806C8FBD8FE19EE461
S11304B097BD86BD08958D9A08955D9BFECF8CB936
S11304C0089583B7877B83BF83B78F7C83BF83B74C
S11304D0846083BF12BE089583B7887F83BF089565
S11304E08A9A929A8FE097E20197F1F700C0000090
S11304F092988A98829BFECF0E9461028299FECFD5
S11305000E946C0262B770E080E090E00E94A50354
S113051027EE3AE34DE05FE30E942D046093D2009E
S11305207093D3008093D4009093D50012BE0895A5
S1130530CF93DF93CDB7DEB72A970FB6F894DEBF1B
S11305400FBECDBF2FE788E391E02150804090405B
S1130550E1F700C000000E94BA010E94FE0160E0C1
S113056080E00E94C90180E690E00E94350261E0CB
S113057080E00E94C90185E790E00E94350262E0B4
S113058080E00E94C90185E790E00E94350263E0A3
S113059080E00E94C9018AE890E00E94350264E08C
S11305A080E00E94C9018FE990E00E94350265E075
S11305B080E00E94C9018FE990E00E94350266E064
S11305C080E00E94C9018FE990E00E94350267E053
S11305D080E00E94C90184EB90E00E9435020E94F1
S11305E044020E944D020E945B02D12C0F2EF9ECB2
S11305F0EF2EF0E0FF2EF02D8E010F5F1F4FB12C78
S1130600CC24C3946091D2007091D3008091D40023
S11306109091D5000E946D037F936F93FF92EF92A8
S11306201F930F930E94C2040E94700263E08FE044
S11306300E94C901C8010E9435020F900F900F90CB
S11306400F900F900F9020E030E040E751E460916C
S1130650D2007091D3008091D4009091D5000E9473
S1130660680318160CF181E40E945D028091D000A9
S11306709091D1004497C4F0D11008C086B597B5C5
S1130680805293409BBD8ABDDC2C0AC021E0D2126B
S113069007C086B597B5805496409BBD8ABDDB2CB8
S11306A01092D1001092D0008FE798E321E081509E
S11306B090402040E1F700C000002091D00030912C
S11306C0D1002F5F3F4F3093D1002093D0009ACFB9
S11306D00E94E00308F481E008950E947403689482
S11306E0B1110C94270408950E940C0488F09F57BC
S11306F098F0B92F9927B751B0F0E1F0660F771F42
S1130700881F991F1AF0BA95C9F714C0B13091F037
S11307100E942604B1E008950C942604672F782FD4
S11307208827B85F39F0B93FCCF3869577956795FC
S1130730B395D9F73EF490958095709561957F4F68
S11307408F4F9F4F0895E89409C097FB3EF490950E
S11307508095709561957F4F8F4F9F4F9923A9F096
S1130760F92F96E9BB279395F69587957795679525
S1130770B795F111F8CFFAF4BB0F11F460FF1BC069
S11307806F5F7F4F8F4F9F4F16C0882311F096E9FC
S113079011C0772321F09EE8872F762F05C06623AA
S11307A071F096E8862F70E060E02AF09A95660F63
S11307B0771F881FDAF7880F9695879597F908951C
S11307C0990F0008550FAA0BE0E8FEEF161617065E
S11307D0E807F907C0F012161306E407F50798F0C6
S11307E0621B730B840B950B39F40A2661F0232BDF
S11307F0242B252B21F408950A2609F4A140A6955B
S11308008FEF811D811D089557FD9058440F551F8A
S113081059F05F3F71F04795880F97FB991F61F07E
S11308209F3F79F087950895121613061406551FF5
S1130830F2CF4695F1DF08C0161617061806991F61
S1130840F1CF86957105610508940895E894BB2756
S113085066277727CB0197F908950E9440040C94EA
S1130860B1040E94A30438F00E94AA0420F0952346
S113087011F00C949A040C94A00411240C942704F1
S11308800E94040470F3959FC1F3950F50E0551F27
S1130890629FF001729FBB27F00DB11D639FAA27D1
S11308A0F00DB11DAA1F649F6627B00DA11D661F20
S11308B0829F2227B00DA11D621F739FB00DA11D41
S11308C0621F839FA00D611D221F749F3327A00DFB
S11308D0611D231F849F600D211D822F762F6A2F97
S11308E011249F5750409AF0F1F088234AF0EE0FFC
S11308F0FF1FBB1F661F771F881F91505040A9F729
S11309009E3F510580F00C949A040C9427045F3F99
S1130910E4F3983ED4F3869577956795B795F79564
S1130920E7959F5FC1F7FE2B880F911D96958795DC
S113093097F9089597F99F6780E870E060E008955B
S11309409FEF80EC089500240A94161617061806E3
S11309500906089500240A941216130614060506BF
S11309600895092E0394000C11F4882352F0BB0F50
S113097040F4BF2B11F460FF04C06F5F7F4F8F4FB3
S11309809F4F0895AEE0B0E0E8ECF4E00C947107FA
S11309900D891E8986E08C831A8309838FEF9FE774
S11309A09E838D83AE01475E5F4F6F89788DCE0144
S11309B001960E94E5042F813885F801E20FF31FA8
S11309C010822E96E4E00C948D07ACE0B0E0EBEEE0
S11309D0F4E00C9463077C016B018A01FC0117822B
S11309E01682838181FFBDC1CE0101964C01F701BE
S11309F09381F60193FD859193FF81916F01882383
S1130A0009F4ABC1853239F493FD859193FF81914B
S1130A106F01853229F4B70190E00E94CD06E7CF3B
S1130A20512C312C20E02032A0F48B3269F030F4C8
S1130A30803259F0833269F420612CC08D3239F050
S1130A40803339F4216026C02260246023C02860EA
S1130A5021C027FD27C030ED380F3A3078F426FF47
S1130A6006C0FAE05F9E300D1124532E13C08AE0B5
S1130A70389E300D1124332E20620CC08E3221F4A6
S1130A8026FD6BC1206406C08C3611F4206802C0B8
S1130A90883641F4F60193FD859193FF81916F01AE
S1130AA08111C1CF982F9F7D9554933028F40C5F0A
S1130AB01F4FFFE3F9830DC0833631F0833771F0A4
S1130AC0833509F05BC022C0F801808189830E5F01
S1130AD01F4F44244394512C540115C03801F2E0B3
S1130AE06F0E711CF801A080B18026FF03C0652D34
S1130AF070E002C06FEF7FEFC5012C870E94C20631
S1130B002C0183012C852F77222E17C03801F2E0A7
S1130B106F0E711CF801A080B18026FF03C0652D03
S1130B2070E002C06FEF7FEFC5012C870E94B7060B
S1130B302C012C852068222E830123FC1BC0832DCD
S1130B4090E048165906B0F4B70180E290E00E94A4
S1130B50CD063A94F4CFF50127FC859127FE8191C7
S1130B605F01B70190E00E94CD0631103A94F1E0A4
S1130B704F1A51084114510471F7E5C0843611F03D
S1130B80893639F5F80127FF07C0608171818281B8
S1130B9093810C5F1F4F08C060817181072E000C88
S1130BA0880B990B0E5F1F4F2F76722E97FF09C08B
S1130BB090958095709561957F4F8F4F9F4F2068DA
S1130BC0722E2AE030E0A4010E940507A82EA8187E
S1130BD044C0853729F42F7EB22E2AE030E025C0A8
S1130BE0F22FF97FBF2E8F36C1F018F4883579F0D3
S1130BF0B4C0803719F0883721F0AFC02F2F20619F
S1130C00B22EB4FE0DC08B2D8460B82E09C024FF13
S1130C100AC09F2F9660B92E06C028E030E005C0B8
S1130C2020E130E002C020E132E0F801B7FE07C065
S1130C3060817181828193810C5F1F4F06C0608146
S1130C40718180E090E00E5F1F4FA4010E940507B0
S1130C50A82EA818FB2DFF777F2E76FE0BC0372D0C
S1130C603E7FA51450F474FE0AC072FC08C0372DF0
S1130C703E7E05C0BA2C372D03C0BA2C01C0B52C5A
S1130C8034FF0DC0FE01EA0DF11D8081803311F4A3
S1130C90397E09C032FF06C0B394B39404C0832FD5
S1130CA0867809F0B39433FD13C030FF06C05A2C84
S1130CB0B31418F4530C5B18B32CB31468F4B701D1
S1130CC080E290E03C870E94CD06B3943C85F5CF4A
S1130CD0B31410F43B1801C0312C34FF12C0B70117
S1130CE080E390E03C870E94CD063C8532FF17C02C
S1130CF031FD03C088E790E002C088E590E0B701C9
S1130D000CC0832F867859F031FF02C08BE201C0FA
S1130D1080E237FD8DE2B70190E00E94CD06A51474
S1130D2038F4B70180E390E00E94CD065A94F7CFDF
S1130D30AA94F401EA0DF11D8081B70190E00E94AC
S1130D40CD06A110F5CF332009F451CEB70180E2CE
S1130D5090E00E94CD063A94F6CFF7018681978100
S1130D6002C08FEF9FEF2C96E2E10C947F07FC0109
S1130D700590615070400110D8F7809590958E0FC2
S1130D809F1F0895FC016150704001900110D8F735
S1130D90809590958E0F9F1F08950F931F93CF9367
S1130DA0DF93FB01238121FD03C08FEF9FEF28C058
S1130DB022FF16C04681578124813581421753078B
S1130DC044F4A081B1819D012F5F3F4F3183208383
S1130DD08C93268137812F5F3F4F3783268310C042
S1130DE0EB01092F182F0084F185E02D0995892B3B
S1130DF0E1F68E819F8101969F838E83812F902FB0
S1130E00DF91CF911F910F910895FA01AA272830FD
S1130E1051F1203181F1E8946F936E7F6E5F7F4FC3
S1130E208F4F9F4FAF4FB1E03ED0B4E03CD0670F3F
S1130E30781F891F9A1FA11D680F791F8A1F911D92
S1130E40A11D6A0F711D811D911DA11D20D009F4E2
S1130E5068943F912AE0269F11243019305D319324
S1130E60DEF6CF010895462F4770405D4193B3E00D
S1130E700FD0C9F7F6CF462F4F70405D4A3318F0B4
S1130E80495D31FD4052419302D0A9F7EACFB4E065
S1130E90A6959795879577956795BA95C9F700971D
S1130EA06105710508959B01AC010A2E06945795BE
S1130EB0479537952795BA95C9F7620F731F841F15
S1130EC0951FA01D08952F923F924F925F926F92AB
S1130ED07F928F929F92AF92BF92CF92DF92EF92C6
S1130EE0FF920F931F93CF93DF93CDB7DEB7CA1B47
S1130EF0DB0B0FB6F894DEBF0FBECDBF09942A8872
S1130F00398848885F846E847D848C849B84AA8419
S1130F10B984C884DF80EE80FD800C811B81AA81A6
S1130F20B981CE0FD11D0FB6F894DEBF0FBECDBF71
S10B0F30ED010895F894FFCFD0
S1130F382023202020232323232323232020232387
S1130F4823232323002023202020202020232020A3
S1130F58202020232020202020002023202020209F
S1130F682020232020202020235F5F5F5F5F002054
S1130F78232020202020202320202020202020205F
S1130F88202023002023202020202020232020206C
S1110F98202023232323232300253364000079
S9030000FC
