:100000000C942A000C943C000C943C000C943C0092
:100010000C943C000C943C000C943C000C943C0070
:100020000C943C000C943C000C943C000C943C0060
:100030000C943C000C943C000C943C000C943C0050
:100040000C943C000C943C000C943C000C943C0040
:100050000C943C0011241FBECFE5D8E0DEBFCDBF1D
:1000600020E0A0E6B0E001C01D92A436B207E1F79F
:100070000E947A000C9478010C9400008FB58C7F5C
:100080008FBD8EB5877E8EBD8EB583608EBD8EB5DD
:100090008B7F8EBD1DBC1CBC08958EB5887F8EBD28
:1000A0000895D09AD89A8FE097E20197F1F700C0AF
:1000B0000000D898D098C89BFECF0E943E00C899F7
:1000C000FECF0E944D006CB57DB580E090E00E94AF
:1000D0007D0020EA39E840E35EE30E94BA006093C5
:1000E00060007093610080936200909363001DBC78
:1000F0001CBC08950E945100FDCFE89409C097FBF5
:100100003EF490958095709561957F4F8F4F9F4FEE
:100110009923A9F0F92F96E9BB279395F695879532
:1001200077956795B795F111F8CFFAF4BB0F11F4F5
:1001300060FF1BC06F5F7F4F8F4F9F4F16C088239C
:1001400011F096E911C0772321F09EE8872F762FD2
:1001500005C0662371F096E8862F70E060E02AF013
:100160009A95660F771F881FDAF7880F96958795FF
:1001700097F908950E94CD000C943E010E94300131
:1001800038F00E94370120F0952311F00C942701DC
:100190000C942D0111240C9472010E944F0170F3F4
:1001A000959FC1F3950F50E0551F629FF001729F1C
:1001B000BB27F00DB11D639FAA27F00DB11DAA1F2B
:1001C000649F6627B00DA11D661F829F2227B00D78
:1001D000A11D621F739FB00DA11D621F839FA00D03
:1001E000611D221F749F3327A00D611D231F849F53
:1001F000600D211D822F762F6A2F11249F575040AA
:100200009AF0F1F088234AF0EE0FFF1FBB1F661F24
:10021000771F881F91505040A9F79E3F510580F0ED
:100220000C9427010C9472015F3FE4F3983ED4F3E1
:10023000869577956795B795F795E7959F5FC1F791
:10024000FE2B880F911D9695879597F9089597F93C
:100250009F6780E870E060E008959FEF80EC08956C
:1002600000240A9416161706180609060895002495
:100270000A9412161306140605060895092E03940F
:10028000000C11F4882352F0BB0F40F4BF2B11F483
:1002900060FF04C06F5F7F4F8F4F9F4F089557FDE2
:1002A0009058440F551F59F05F3F71F04795880FE4
:1002B00097FB991F61F09F3F79F08795089512167B
:1002C00013061406551FF2CF4695F1DF08C0161627
:1002D00017061806991FF1CF8695710561050894D8
:1002E0000895E894BB2766277727CB0197F90895EF
:0402F000F894FFCFB0
:00000001FF
