S0160000616E74697573656C657373626F782E7372656315
S11300000C942A000C943C000C943C000C943C008E
S11300100C943C000C943C000C943C000C943C006C
S11300200C943C000C943C000C943C000C943C005C
S11300300C943C000C943C000C943C000C943C004C
S11300400C943C000C943C000C943C000C943C003C
S11300500C943C0011241FBECFE5D8E0DEBFCDBF19
S113006020E0A0E6B0E001C01D92A036B207E1F79F
S11300700E944C000C9470000C9400008FB58260B8
S11300808FBD8EB58A618EBD8FB5806C8FBD8FE1BB
S11300909EE497BD86BD08950E943E0081B38FEF14
S11300A081BB86B597B5805293409BBD8ABD2FEF27
S11300B083ED90E3215080409040E1F700C00000C0
S11300C086B597B5805496409BBD8ABD2FEF83EDCE
S11300D090E3215080409040E1F700C00000E1CF60
S10700E0F894FFCFBE
S9030000FC
