:100000000C942A000C943C000C943C000C943C0092
:100010000C943C000C943C000C943C000C943C0070
:100020000C943C000C943C000C943C000C943C0060
:100030000C943C000C943C000C943C000C943C0050
:100040000C943C000C943C000C943C000C943C0040
:100050000C943C0011241FBECFE5D8E0DEBFCDBF1D
:1000600020E0A0E6B0E001C01D92A236B207E1F7A1
:100070000E946C000C946F000C9400008FB58C7F74
:100080008FBD8EB5877E8EBD8EB583608EBD8EB5DD
:100090008B7F8EBD1DBC1CBC08958EB5887F8EBD28
:1000A0000895D09AD89A81EE94E00197F1F700C0B4
:1000B0000000D898D098C89BFECF0E943E00C899F7
:1000C000FECF0E944D008CB59DB59093610080934A
:1000D00060001DBC1CBC08950E945100FDCFF89427
:0200E000FFCF50
:00000001FF
